:020000040000FA
:10000000372100001301010097000000E780C000C5
:100010006F000000130101FF2326110017050000E7
:100020001305850D97000000E78040041305803E0E
:100030001300000097000000E780C0066FF01FFE6D
:100040008320C1001301010167800000B702008016
:100050009382020103A3020013731300E31C03FE47
:1000600023A0A20067800000130101FF23261100D6
:10007000232481001304050003450400630A0500DE
:1000800097000000E780C0FC130414006FF0DFFE4F
:10009000032481008320C100130101016780000057
:1000A000130101FF23261100232481002322910044
:1000B0001304050097000000E78000039304050087
:1000C00097000000E780400233059540E34A85FE33
:1000D00083244100032481008320C1001301010116
:1000E00067800000B70200809382020203A502002D
:0400F0006780000025
:020000040000FA
:1000F40048656C6C6F2C205256333249210D0A002E
:00000001FF
